{
  "_format": "hh-sol-artifact-1",
  "contractName": "AgentRegistry",
  "sourceName": "contracts/AgentRegistry.sol",
  "abi": [
    {
      "inputs": [],
      "stateMutability": "nonpayable",
      "type": "constructor"
    },
    {
      "anonymous": false,
      "inputs": [
        {
          "indexed": true,
          "internalType": "address",
          "name": "wallet",
          "type": "address"
        },
        {
          "indexed": false,
          "internalType": "string[]",
          "name": "capabilities",
          "type": "string[]"
        },
        {
          "indexed": false,
          "internalType": "uint256",
          "name": "timestamp",
          "type": "uint256"
        }
      ],
      "name": "AgentRegistered",
      "type": "event"
    },
    {
      "anonymous": false,
      "inputs": [
        {
          "indexed": true,
          "internalType": "address",
          "name": "wallet",
          "type": "address"
        },
        {
          "indexed": false,
          "internalType": "string[]",
          "name": "capabilities",
          "type": "string[]"
        },
        {
          "indexed": false,
          "internalType": "uint256",
          "name": "timestamp",
          "type": "uint256"
        }
      ],
      "name": "CapabilitiesUpdated",
      "type": "event"
    },
    {
      "anonymous": false,
      "inputs": [
        {
          "indexed": true,
          "internalType": "address",
          "name": "wallet",
          "type": "address"
        },
        {
          "indexed": false,
          "internalType": "uint256",
          "name": "totalJobsCompleted",
          "type": "uint256"
        },
        {
          "indexed": false,
          "internalType": "uint256",
          "name": "totalJobsPosted",
          "type": "uint256"
        },
        {
          "indexed": false,
          "internalType": "uint256",
          "name": "totalEarned",
          "type": "uint256"
        },
        {
          "indexed": false,
          "internalType": "uint256",
          "name": "totalSpent",
          "type": "uint256"
        }
      ],
      "name": "JobStatsUpdated",
      "type": "event"
    },
    {
      "anonymous": false,
      "inputs": [
        {
          "indexed": true,
          "internalType": "address",
          "name": "wallet",
          "type": "address"
        },
        {
          "indexed": false,
          "internalType": "int256",
          "name": "newScore",
          "type": "int256"
        },
        {
          "indexed": false,
          "internalType": "int256",
          "name": "delta",
          "type": "int256"
        },
        {
          "indexed": false,
          "internalType": "uint256",
          "name": "timestamp",
          "type": "uint256"
        }
      ],
      "name": "ReputationUpdated",
      "type": "event"
    },
    {
      "inputs": [
        {
          "internalType": "address",
          "name": "",
          "type": "address"
        }
      ],
      "name": "agents",
      "outputs": [
        {
          "internalType": "address",
          "name": "wallet",
          "type": "address"
        },
        {
          "internalType": "int256",
          "name": "reputationScore",
          "type": "int256"
        },
        {
          "internalType": "uint256",
          "name": "totalJobsCompleted",
          "type": "uint256"
        },
        {
          "internalType": "uint256",
          "name": "totalJobsPosted",
          "type": "uint256"
        },
        {
          "internalType": "uint256",
          "name": "totalEarned",
          "type": "uint256"
        },
        {
          "internalType": "uint256",
          "name": "totalSpent",
          "type": "uint256"
        },
        {
          "internalType": "bool",
          "name": "isActive",
          "type": "bool"
        },
        {
          "internalType": "uint256",
          "name": "registeredAt",
          "type": "uint256"
        }
      ],
      "stateMutability": "view",
      "type": "function"
    },
    {
      "inputs": [
        {
          "internalType": "address",
          "name": "_contract",
          "type": "address"
        }
      ],
      "name": "authorizeContract",
      "outputs": [],
      "stateMutability": "nonpayable",
      "type": "function"
    },
    {
      "inputs": [
        {
          "internalType": "address",
          "name": "",
          "type": "address"
        }
      ],
      "name": "authorizedContracts",
      "outputs": [
        {
          "internalType": "bool",
          "name": "",
          "type": "bool"
        }
      ],
      "stateMutability": "view",
      "type": "function"
    },
    {
      "inputs": [],
      "name": "deactivateAgent",
      "outputs": [],
      "stateMutability": "nonpayable",
      "type": "function"
    },
    {
      "inputs": [
        {
          "internalType": "address",
          "name": "_agent",
          "type": "address"
        }
      ],
      "name": "getAgentInfo",
      "outputs": [
        {
          "internalType": "address",
          "name": "wallet",
          "type": "address"
        },
        {
          "internalType": "string[]",
          "name": "capabilities",
          "type": "string[]"
        },
        {
          "internalType": "int256",
          "name": "reputationScore",
          "type": "int256"
        },
        {
          "internalType": "uint256",
          "name": "totalJobsCompleted",
          "type": "uint256"
        },
        {
          "internalType": "uint256",
          "name": "totalJobsPosted",
          "type": "uint256"
        },
        {
          "internalType": "uint256",
          "name": "totalEarned",
          "type": "uint256"
        },
        {
          "internalType": "uint256",
          "name": "totalSpent",
          "type": "uint256"
        },
        {
          "internalType": "bool",
          "name": "isActive",
          "type": "bool"
        },
        {
          "internalType": "uint256",
          "name": "registeredAt",
          "type": "uint256"
        }
      ],
      "stateMutability": "view",
      "type": "function"
    },
    {
      "inputs": [
        {
          "internalType": "address",
          "name": "_agent",
          "type": "address"
        }
      ],
      "name": "isAgentActive",
      "outputs": [
        {
          "internalType": "bool",
          "name": "",
          "type": "bool"
        }
      ],
      "stateMutability": "view",
      "type": "function"
    },
    {
      "inputs": [
        {
          "internalType": "address",
          "name": "",
          "type": "address"
        }
      ],
      "name": "isRegistered",
      "outputs": [
        {
          "internalType": "bool",
          "name": "",
          "type": "bool"
        }
      ],
      "stateMutability": "view",
      "type": "function"
    },
    {
      "inputs": [],
      "name": "owner",
      "outputs": [
        {
          "internalType": "address",
          "name": "",
          "type": "address"
        }
      ],
      "stateMutability": "view",
      "type": "function"
    },
    {
      "inputs": [],
      "name": "reactivateAgent",
      "outputs": [],
      "stateMutability": "nonpayable",
      "type": "function"
    },
    {
      "inputs": [
        {
          "internalType": "string[]",
          "name": "_capabilities",
          "type": "string[]"
        }
      ],
      "name": "registerAgent",
      "outputs": [],
      "stateMutability": "nonpayable",
      "type": "function"
    },
    {
      "inputs": [
        {
          "internalType": "address",
          "name": "_contract",
          "type": "address"
        }
      ],
      "name": "revokeContractAuthorization",
      "outputs": [],
      "stateMutability": "nonpayable",
      "type": "function"
    },
    {
      "inputs": [
        {
          "internalType": "string[]",
          "name": "_capabilities",
          "type": "string[]"
        }
      ],
      "name": "updateCapabilities",
      "outputs": [],
      "stateMutability": "nonpayable",
      "type": "function"
    },
    {
      "inputs": [
        {
          "internalType": "address",
          "name": "_poster",
          "type": "address"
        },
        {
          "internalType": "address",
          "name": "_executor",
          "type": "address"
        },
        {
          "internalType": "uint256",
          "name": "_payment",
          "type": "uint256"
        },
        {
          "internalType": "bool",
          "name": "_success",
          "type": "bool"
        }
      ],
      "name": "updateJobStats",
      "outputs": [],
      "stateMutability": "nonpayable",
      "type": "function"
    },
    {
      "inputs": [
        {
          "internalType": "address",
          "name": "_agent",
          "type": "address"
        },
        {
          "internalType": "int256",
          "name": "_delta",
          "type": "int256"
        }
      ],
      "name": "updateReputation",
      "outputs": [],
      "stateMutability": "nonpayable",
      "type": "function"
    }
  ],
  "bytecode": "0x608060405234801561001057600080fd5b50600380546001600160a01b0319163317905561128f806100326000396000f3fe608060405234801561001057600080fd5b50600436106100ea5760003560e01c80638da5cb5b1161008c578063c16a246811610066578063c16a2468146101df578063c3c5a547146101f2578063d5b9221b14610215578063fd66091e1461023857600080fd5b80638da5cb5b146101a45780639a4fbf5b146101cf578063c1599e4d146101d757600080fd5b8063554c4f4b116100c8578063554c4f4b146101485780636335fd001461016b57806367561d931461017e5780636a08b5111461019157600080fd5b8063152052b0146100ef5780632eda20891461012057806349f4c85d14610135575b600080fd5b6101026100fd366004610d46565b6102e0565b60405161011799989796959493929190610df0565b60405180910390f35b61013361012e366004610d46565b6104dc565b005b610133610143366004610e50565b610544565b61015b610156366004610d46565b610807565b6040519015158152602001610117565b610133610179366004610eeb565b610850565b61013361018c366004610d46565b610993565b61013361019f366004611004565b6109fe565b6003546101b7906001600160a01b031681565b6040516001600160a01b039091168152602001610117565b610133610b11565b610133610b5c565b6101336101ed366004610eeb565b610baa565b61015b610200366004610d46565b60016020526000908152604090205460ff1681565b61015b610223366004610d46565b60026020526000908152604090205460ff1681565b610299610246366004610d46565b600060208190529081526040902080546002820154600383015460048401546005850154600686015460078701546008909701546001600160a01b03909616969495939492939192909160ff9091169088565b604080516001600160a01b0390991689526020890197909752958701949094526060860192909252608085015260a0840152151560c083015260e082015261010001610117565b6001600160a01b038116600090815260016020526040812054606090829081908190819081908190819060ff166103325760405162461bcd60e51b81526004016103299061102e565b60405180910390fd5b6001600160a01b03808b16600090815260208181526040808320815161012081018352815490951685526001810180548351818602810186019094528084529495949193858101939290879084015b8282101561042d5783829060005260206000200180546103a09061105c565b80601f01602080910402602001604051908101604052809291908181526020018280546103cc9061105c565b80156104195780601f106103ee57610100808354040283529160200191610419565b820191906000526020600020905b8154815290600101906020018083116103fc57829003601f168201915b505050505081526020019060010190610381565b50505050815260200160028201548152602001600382015481526020016004820154815260200160058201548152602001600682015481526020016007820160009054906101000a900460ff161515151581526020016008820154815250509050806000015181602001518260400151836060015184608001518560a001518660c001518760e00151886101000151995099509950995099509950995099509950509193959799909294969850565b6003546001600160a01b031633146105235760405162461bcd60e51b815260206004820152600a60248201526927b7363c9037bbb732b960b11b6044820152606401610329565b6001600160a01b03166000908152600260205260409020805460ff19169055565b3360009081526002602052604090205460ff166105945760405162461bcd60e51b815260206004820152600e60248201526d139bdd08185d5d1a1bdc9a5e995960921b6044820152606401610329565b6001600160a01b03841660009081526001602052604090205460ff166105f45760405162461bcd60e51b8152602060048201526015602482015274141bdcdd195c881b9bdd081c9959da5cdd195c9959605a1b6044820152606401610329565b6001600160a01b03831660009081526001602052604090205460ff1661065c5760405162461bcd60e51b815260206004820152601760248201527f4578656375746f72206e6f7420726567697374657265640000000000000000006044820152606401610329565b6001600160a01b03841660009081526020819052604081206004018054600192906106889084906110ac565b90915550506001600160a01b038416600090815260208190526040812060060180548492906106b89084906110ac565b90915550508015610725576001600160a01b03831660009081526020819052604081206003018054600192906106ef9084906110ac565b90915550506001600160a01b0383166000908152602081905260408120600501805484929061071f9084906110ac565b90915550505b6001600160a01b038416600081815260208181526040918290206003810154600482015460058301546006909301548551928352938201529283015260608201527ffadf5d96d34612704df85678c0fe89b3b5f52f99aab8dec01c898b262c65bd5c9060800160405180910390a26001600160a01b038316600081815260208181526040918290206003810154600482015460058301546006909301548551928352938201529283015260608201527ffadf5d96d34612704df85678c0fe89b3b5f52f99aab8dec01c898b262c65bd5c9060800160405180910390a250505050565b6001600160a01b03811660009081526001602052604081205460ff16801561084a57506001600160a01b03821660009081526020819052604090206007015460ff165b92915050565b3360009081526001602052604090205460ff16156108a55760405162461bcd60e51b8152602060048201526012602482015271105b1c9958591e481c9959da5cdd195c995960721b6044820152606401610329565b60008151116108c65760405162461bcd60e51b8152600401610329906110bf565b3360008181526020818152604090912080546001600160a01b031916909217825582516108fb91600184019190850190610c65565b5060006002820181905560038201819055600482018190556005820181905560068201819055600782018054600160ff19918216811790925542600885018190553380855260208490526040948590208054909316909317909155915190917f681aa0c4cc34b145f7d9f93984c5e3e569170778789b23fb253afba3a9f7069291610987918691611100565b60405180910390a25050565b6003546001600160a01b031633146109da5760405162461bcd60e51b815260206004820152600a60248201526927b7363c9037bbb732b960b11b6044820152606401610329565b6001600160a01b03166000908152600260205260409020805460ff19166001179055565b3360009081526002602052604090205460ff16610a4e5760405162461bcd60e51b815260206004820152600e60248201526d139bdd08185d5d1a1bdc9a5e995960921b6044820152606401610329565b6001600160a01b03821660009081526001602052604090205460ff16610a865760405162461bcd60e51b81526004016103299061102e565b6001600160a01b03821660009081526020819052604081206002018054839290610ab1908490611122565b90915550506001600160a01b0382166000818152602081815260409182902060020154825190815290810184905242918101919091527fea5fe71d5a56d865889664d990de92b0bf86eca220c07b33b3521b3ea9702f9090606001610987565b3360009081526001602052604090205460ff16610b405760405162461bcd60e51b81526004016103299061102e565b336000908152602081905260409020600701805460ff19169055565b3360009081526001602052604090205460ff16610b8b5760405162461bcd60e51b81526004016103299061102e565b336000908152602081905260409020600701805460ff19166001179055565b3360009081526001602052604090205460ff16610bd95760405162461bcd60e51b81526004016103299061102e565b6000815111610bfa5760405162461bcd60e51b8152600401610329906110bf565b336000908152602081815260409091208251610c1e92600190920191840190610c65565b50336001600160a01b03167f02b566e5f15b55955cf63efd1e66df5080f02d1f79225a9eb3b95df5883b97058242604051610c5a929190611100565b60405180910390a250565b828054828255906000526020600020908101928215610cab579160200282015b82811115610cab5782518290610c9b9082611199565b5091602001919060010190610c85565b50610cb7929150610cbb565b5090565b80821115610cb7576000610ccf8282610cd8565b50600101610cbb565b508054610ce49061105c565b6000825580601f10610cf4575050565b601f016020900490600052602060002090810190610d129190610d15565b50565b5b80821115610cb75760008155600101610d16565b80356001600160a01b0381168114610d4157600080fd5b919050565b600060208284031215610d5857600080fd5b610d6182610d2a565b9392505050565b600082825180855260208086019550808260051b8401018186016000805b85811015610de257601f1980888603018b5283518051808752845b81811015610dbc578281018901518882018a01528801610da1565b5086810188018590529b87019b601f019091169094018501935091840191600101610d86565b509198975050505050505050565b6001600160a01b038a16815261012060208201819052600090610e158382018c610d68565b604084019a909a5250506060810196909652608086019490945260a085019290925260c0840152151560e08301526101009091015292915050565b60008060008060808587031215610e6657600080fd5b610e6f85610d2a565b9350610e7d60208601610d2a565b92506040850135915060608501358015158114610e9957600080fd5b939692955090935050565b634e487b7160e01b600052604160045260246000fd5b604051601f8201601f1916810167ffffffffffffffff81118282101715610ee357610ee3610ea4565b604052919050565b60006020808385031215610efe57600080fd5b823567ffffffffffffffff80821115610f1657600080fd5b8185019150601f8681840112610f2b57600080fd5b823582811115610f3d57610f3d610ea4565b8060051b610f4c868201610eba565b918252848101860191868101908a841115610f6657600080fd5b87870192505b83831015610ff657823586811115610f845760008081fd5b8701603f81018c13610f965760008081fd5b88810135604088821115610fac57610fac610ea4565b610fbd828901601f19168c01610eba565b8281528e82848601011115610fd25760008081fd5b828285018d83013760009281018c0192909252508352509187019190870190610f6c565b9a9950505050505050505050565b6000806040838503121561101757600080fd5b61102083610d2a565b946020939093013593505050565b6020808252601490820152731059d95b9d081b9bdd081c9959da5cdd195c995960621b604082015260600190565b600181811c9082168061107057607f821691505b60208210810361109057634e487b7160e01b600052602260045260246000fd5b50919050565b634e487b7160e01b600052601160045260246000fd5b8082018082111561084a5761084a611096565b60208082526021908201527f4d7573742068617665206174206c65617374206f6e65206361706162696c69746040820152607960f81b606082015260800190565b6040815260006111136040830185610d68565b90508260208301529392505050565b808201828112600083128015821682158216171561114257611142611096565b505092915050565b601f82111561119457600081815260208120601f850160051c810160208610156111715750805b601f850160051c820191505b818110156111905782815560010161117d565b5050505b505050565b815167ffffffffffffffff8111156111b3576111b3610ea4565b6111c7816111c1845461105c565b8461114a565b602080601f8311600181146111fc57600084156111e45750858301515b600019600386901b1c1916600185901b178555611190565b600085815260208120601f198616915b8281101561122b5788860151825594840194600190910190840161120c565b50858210156112495787850151600019600388901b60f8161c191681555b5050505050600190811b0190555056fea26469706673582212209b6e68f48fe1bdee87239e8f366bb1ecaa399e30e721391de8dcd306212313de64736f6c63430008140033",
  "linkReferences": {},
  "deployedLinkReferences": {}
}