{
  "_format": "hh-sol-artifact-1",
  "contractName": "JobEscrow",
  "sourceName": "contracts/JobEscrow.sol",
  "abi": [
    {
      "inputs": [
        {
          "internalType": "address",
          "name": "_ausdToken",
          "type": "address"
        },
        {
          "internalType": "address",
          "name": "_agentRegistry",
          "type": "address"
        }
      ],
      "stateMutability": "nonpayable",
      "type": "constructor"
    },
    {
      "anonymous": false,
      "inputs": [
        {
          "indexed": true,
          "internalType": "uint256",
          "name": "jobId",
          "type": "uint256"
        },
        {
          "indexed": true,
          "internalType": "address",
          "name": "executor",
          "type": "address"
        },
        {
          "indexed": false,
          "internalType": "uint256",
          "name": "collateral",
          "type": "uint256"
        }
      ],
      "name": "JobAccepted",
      "type": "event"
    },
    {
      "anonymous": false,
      "inputs": [
        {
          "indexed": true,
          "internalType": "uint256",
          "name": "jobId",
          "type": "uint256"
        },
        {
          "indexed": true,
          "internalType": "address",
          "name": "poster",
          "type": "address"
        },
        {
          "indexed": false,
          "internalType": "uint256",
          "name": "refundedAmount",
          "type": "uint256"
        }
      ],
      "name": "JobCancelled",
      "type": "event"
    },
    {
      "anonymous": false,
      "inputs": [
        {
          "indexed": true,
          "internalType": "uint256",
          "name": "jobId",
          "type": "uint256"
        },
        {
          "indexed": false,
          "internalType": "bool",
          "name": "verified",
          "type": "bool"
        },
        {
          "indexed": false,
          "internalType": "uint256",
          "name": "payment",
          "type": "uint256"
        },
        {
          "indexed": true,
          "internalType": "address",
          "name": "executor",
          "type": "address"
        }
      ],
      "name": "JobCompleted",
      "type": "event"
    },
    {
      "anonymous": false,
      "inputs": [
        {
          "indexed": true,
          "internalType": "uint256",
          "name": "jobId",
          "type": "uint256"
        },
        {
          "indexed": false,
          "internalType": "string",
          "name": "reason",
          "type": "string"
        },
        {
          "indexed": false,
          "internalType": "uint256",
          "name": "slashedAmount",
          "type": "uint256"
        }
      ],
      "name": "JobFailed",
      "type": "event"
    },
    {
      "anonymous": false,
      "inputs": [
        {
          "indexed": true,
          "internalType": "uint256",
          "name": "jobId",
          "type": "uint256"
        },
        {
          "indexed": true,
          "internalType": "address",
          "name": "poster",
          "type": "address"
        },
        {
          "indexed": false,
          "internalType": "uint256",
          "name": "payment",
          "type": "uint256"
        },
        {
          "indexed": false,
          "internalType": "uint256",
          "name": "collateral",
          "type": "uint256"
        },
        {
          "indexed": false,
          "internalType": "string",
          "name": "capability",
          "type": "string"
        },
        {
          "indexed": false,
          "internalType": "uint256",
          "name": "deadline",
          "type": "uint256"
        }
      ],
      "name": "JobPosted",
      "type": "event"
    },
    {
      "anonymous": false,
      "inputs": [
        {
          "indexed": true,
          "internalType": "uint256",
          "name": "jobId",
          "type": "uint256"
        },
        {
          "indexed": true,
          "internalType": "address",
          "name": "executor",
          "type": "address"
        },
        {
          "indexed": false,
          "internalType": "bytes32",
          "name": "submittedHash",
          "type": "bytes32"
        }
      ],
      "name": "JobSubmitted",
      "type": "event"
    },
    {
      "inputs": [],
      "name": "REPUTATION_FAILURE",
      "outputs": [
        {
          "internalType": "int256",
          "name": "",
          "type": "int256"
        }
      ],
      "stateMutability": "view",
      "type": "function"
    },
    {
      "inputs": [],
      "name": "REPUTATION_SUCCESS",
      "outputs": [
        {
          "internalType": "int256",
          "name": "",
          "type": "int256"
        }
      ],
      "stateMutability": "view",
      "type": "function"
    },
    {
      "inputs": [
        {
          "internalType": "uint256",
          "name": "_jobId",
          "type": "uint256"
        }
      ],
      "name": "acceptJob",
      "outputs": [],
      "stateMutability": "nonpayable",
      "type": "function"
    },
    {
      "inputs": [],
      "name": "agentRegistry",
      "outputs": [
        {
          "internalType": "contract AgentRegistry",
          "name": "",
          "type": "address"
        }
      ],
      "stateMutability": "view",
      "type": "function"
    },
    {
      "inputs": [],
      "name": "ausdToken",
      "outputs": [
        {
          "internalType": "contract IERC20",
          "name": "",
          "type": "address"
        }
      ],
      "stateMutability": "view",
      "type": "function"
    },
    {
      "inputs": [
        {
          "internalType": "uint256",
          "name": "_jobId",
          "type": "uint256"
        }
      ],
      "name": "cancelJob",
      "outputs": [],
      "stateMutability": "nonpayable",
      "type": "function"
    },
    {
      "inputs": [
        {
          "internalType": "uint256",
          "name": "_jobId",
          "type": "uint256"
        }
      ],
      "name": "claimTimeout",
      "outputs": [],
      "stateMutability": "nonpayable",
      "type": "function"
    },
    {
      "inputs": [
        {
          "internalType": "uint256",
          "name": "_jobId",
          "type": "uint256"
        }
      ],
      "name": "getJob",
      "outputs": [
        {
          "internalType": "uint256",
          "name": "jobId",
          "type": "uint256"
        },
        {
          "internalType": "address",
          "name": "poster",
          "type": "address"
        },
        {
          "internalType": "address",
          "name": "executor",
          "type": "address"
        },
        {
          "internalType": "bytes32",
          "name": "expectedHash",
          "type": "bytes32"
        },
        {
          "internalType": "bytes32",
          "name": "submittedHash",
          "type": "bytes32"
        },
        {
          "internalType": "uint256",
          "name": "payment",
          "type": "uint256"
        },
        {
          "internalType": "uint256",
          "name": "collateral",
          "type": "uint256"
        },
        {
          "internalType": "uint256",
          "name": "deadline",
          "type": "uint256"
        },
        {
          "internalType": "enum JobEscrow.JobStatus",
          "name": "status",
          "type": "uint8"
        },
        {
          "internalType": "string",
          "name": "capability",
          "type": "string"
        },
        {
          "internalType": "uint256",
          "name": "createdAt",
          "type": "uint256"
        },
        {
          "internalType": "uint256",
          "name": "completedAt",
          "type": "uint256"
        }
      ],
      "stateMutability": "view",
      "type": "function"
    },
    {
      "inputs": [],
      "name": "getTotalJobs",
      "outputs": [
        {
          "internalType": "uint256",
          "name": "",
          "type": "uint256"
        }
      ],
      "stateMutability": "view",
      "type": "function"
    },
    {
      "inputs": [],
      "name": "jobCounter",
      "outputs": [
        {
          "internalType": "uint256",
          "name": "",
          "type": "uint256"
        }
      ],
      "stateMutability": "view",
      "type": "function"
    },
    {
      "inputs": [
        {
          "internalType": "uint256",
          "name": "",
          "type": "uint256"
        }
      ],
      "name": "jobs",
      "outputs": [
        {
          "internalType": "uint256",
          "name": "jobId",
          "type": "uint256"
        },
        {
          "internalType": "address",
          "name": "poster",
          "type": "address"
        },
        {
          "internalType": "address",
          "name": "executor",
          "type": "address"
        },
        {
          "internalType": "bytes32",
          "name": "expectedHash",
          "type": "bytes32"
        },
        {
          "internalType": "bytes32",
          "name": "submittedHash",
          "type": "bytes32"
        },
        {
          "internalType": "uint256",
          "name": "payment",
          "type": "uint256"
        },
        {
          "internalType": "uint256",
          "name": "collateral",
          "type": "uint256"
        },
        {
          "internalType": "uint256",
          "name": "deadline",
          "type": "uint256"
        },
        {
          "internalType": "enum JobEscrow.JobStatus",
          "name": "status",
          "type": "uint8"
        },
        {
          "internalType": "string",
          "name": "capability",
          "type": "string"
        },
        {
          "internalType": "uint256",
          "name": "createdAt",
          "type": "uint256"
        },
        {
          "internalType": "uint256",
          "name": "completedAt",
          "type": "uint256"
        }
      ],
      "stateMutability": "view",
      "type": "function"
    },
    {
      "inputs": [
        {
          "internalType": "bytes32",
          "name": "_expectedHash",
          "type": "bytes32"
        },
        {
          "internalType": "uint256",
          "name": "_payment",
          "type": "uint256"
        },
        {
          "internalType": "uint256",
          "name": "_collateral",
          "type": "uint256"
        },
        {
          "internalType": "string",
          "name": "_capability",
          "type": "string"
        },
        {
          "internalType": "uint256",
          "name": "_deadlineMinutes",
          "type": "uint256"
        }
      ],
      "name": "postJob",
      "outputs": [
        {
          "internalType": "uint256",
          "name": "",
          "type": "uint256"
        }
      ],
      "stateMutability": "nonpayable",
      "type": "function"
    },
    {
      "inputs": [
        {
          "internalType": "uint256",
          "name": "_jobId",
          "type": "uint256"
        },
        {
          "internalType": "bytes32",
          "name": "_resultHash",
          "type": "bytes32"
        }
      ],
      "name": "submitResult",
      "outputs": [],
      "stateMutability": "nonpayable",
      "type": "function"
    }
  ],
  "bytecode": "0x60806040523480156200001157600080fd5b5060405162001d7538038062001d75833981016040819052620000349162000137565b6001600160a01b038216620000905760405162461bcd60e51b815260206004820152601460248201527f496e76616c69642041555344206164647265737300000000000000000000000060448201526064015b60405180910390fd5b6001600160a01b038116620000e85760405162461bcd60e51b815260206004820152601860248201527f496e76616c696420726567697374727920616464726573730000000000000000604482015260640162000087565b600080546001600160a01b039384166001600160a01b031991821617909155600180549290931691161790556200016f565b80516001600160a01b03811681146200013257600080fd5b919050565b600080604083850312156200014b57600080fd5b62000156836200011a565b915062000166602084016200011a565b90509250929050565b611bf6806200017f6000396000f3fe608060405234801561001057600080fd5b50600436106100cf5760003560e01c806350355d761161008c578063a243906d11610066578063a243906d1461019a578063a738099d146101ad578063bf22c457146101c0578063d2ee66cf146101d357600080fd5b806350355d761461016b57806363b2f3c91461017457806386e773f11461018757600080fd5b80630d1cfcae146100d4578063180aedf3146101045780631ba5a79e1461012f5780631dffa3dc146101465780633aee79961461015b57806347ca13ab14610163575b600080fd5b6001546100e7906001600160a01b031681565b6040516001600160a01b0390911681526020015b60405180910390f35b610117610112366004611725565b6101e6565b6040516100fb9c9b9a9998979695949392919061179a565b61013860091981565b6040519081526020016100fb565b610159610154366004611725565b6102df565b005b600254610138565b610138600581565b61013860025481565b610159610182366004611725565b6104ec565b610159610195366004611725565b610805565b6000546100e7906001600160a01b031681565b6101386101bb366004611848565b610b72565b6101176101ce366004611725565b610f0e565b6101596101e136600461191e565b6110e7565b60036020819052600091825260409091208054600182015460028301549383015460048401546005850154600686015460078701546008880154600989018054989a6001600160a01b039889169a9816989697959694959394929360ff9092169261025090611940565b80601f016020809104026020016040519081016040528092919081815260200182805461027c90611940565b80156102c95780601f1061029e576101008083540402835291602001916102c9565b820191906000526020600020905b8154815290600101906020018083116102ac57829003601f168201915b50505050509080600a01549080600b015490508c565b60045460ff161561030b5760405162461bcd60e51b81526004016103029061197a565b60405180910390fd5b6004805460ff191660019081179091556000828152600360205260409020015481906001600160a01b031633146103725760405162461bcd60e51b815260206004820152600b60248201526a27b7363c903837b9ba32b960a91b6044820152606401610302565b600082815260036020526040812090600882015460ff16600581111561039a5761039a61173e565b146103e75760405162461bcd60e51b815260206004820152601c60248201527f43616e206f6e6c792063616e63656c2070656e64696e67206a6f6273000000006044820152606401610302565b60088101805460ff1916600590811790915560005460018301549183015460405163a9059cbb60e01b81526001600160a01b039384166004820152602481019190915291169063a9059cbb906044016020604051808303816000875af1158015610455573d6000803e3d6000fd5b505050506040513d601f19601f8201168201806040525081019061047991906119a1565b6104955760405162461bcd60e51b8152600401610302906119ca565b336001600160a01b0316837fa80c76c474b34cc7af71dec63d733b959fff08f4eb0789e288be5db6b608f94283600501546040516104d591815260200190565b60405180910390a350506004805460ff1916905550565b60045460ff161561050f5760405162461bcd60e51b81526004016103029061197a565b6004805460ff19166001179055600081815260036020526040812090600882015460ff1660058111156105445761054461173e565b146105855760405162461bcd60e51b81526020600482015260116024820152704a6f62206e6f7420617661696c61626c6560781b6044820152606401610302565b6001810154336001600160a01b03909116036105db5760405162461bcd60e51b815260206004820152601560248201527421b0b73737ba1030b1b1b2b83a1037bbb7103537b160591b6044820152606401610302565b8060070154421061061c5760405162461bcd60e51b815260206004820152600b60248201526a129bd888195e1c1a5c995960aa1b6044820152606401610302565b60015460405163554c4f4b60e01b81523360048201526001600160a01b039091169063554c4f4b90602401602060405180830381865afa158015610664573d6000803e3d6000fd5b505050506040513d601f19601f8201168201806040525081019061068891906119a1565b6106ca5760405162461bcd60e51b81526020600482015260136024820152724578656375746f72206e6f742061637469766560681b6044820152606401610302565b60005460068201546040516323b872dd60e01b815233600482015230602482015260448101919091526001600160a01b03909116906323b872dd906064016020604051808303816000875af1158015610727573d6000803e3d6000fd5b505050506040513d601f19601f8201168201806040525081019061074b91906119a1565b6107975760405162461bcd60e51b815260206004820152601a60248201527f436f6c6c61746572616c207472616e73666572206661696c65640000000000006044820152606401610302565b6002810180546001600160a01b0319163390811790915560088201805460ff19166001179055600682015460405190815283907f3dd4928560f1aee6156570e82745e8f638e22a59b215d3cd549c53a32708b0e69060200160405180910390a350506004805460ff19169055565b60045460ff16156108285760405162461bcd60e51b81526004016103029061197a565b6004805460ff191660019081179091556000828152600360205260409020015481906001600160a01b0316331461088f5760405162461bcd60e51b815260206004820152600b60248201526a27b7363c903837b9ba32b960a91b6044820152606401610302565b60008281526003602052604090206001600882015460ff1660058111156108b8576108b861173e565b146109055760405162461bcd60e51b815260206004820152601960248201527f4a6f62206e6f7420696e206163636570746564207374617465000000000000006044820152606401610302565b806007015442101561094f5760405162461bcd60e51b8152602060048201526013602482015272111958591b1a5b99481b9bdd081c185cdcd959606a1b6044820152606401610302565b60088101805460ff1916600417905542600b8201556006810154600582015460009161097a91611a10565b600054600184015460405163a9059cbb60e01b81526001600160a01b03918216600482015260248101849052929350169063a9059cbb906044016020604051808303816000875af11580156109d3573d6000803e3d6000fd5b505050506040513d601f19601f820116820180604052508101906109f791906119a1565b610a135760405162461bcd60e51b8152600401610302906119ca565b6001546002830154604051636a08b51160e01b81526001600160a01b0391821660048201526009196024820152911690636a08b51190604401600060405180830381600087803b158015610a6657600080fd5b505af1158015610a7a573d6000803e3d6000fd5b50506001805490850154600286015460058701546040516349f4c85d60e01b81526001600160a01b0394851696506349f4c85d9550610ac6949384169390921691600090600401611a29565b600060405180830381600087803b158015610ae057600080fd5b505af1158015610af4573d6000803e3d6000fd5b50505050837f5ef3eb801ec43f028a7fa965b51780a4338218fead0de885d2a9c13133fa54828360060154604051610b5a9190604080825260119082015270111958591b1a5b9948195e18d959591959607a1b6060820152602081019190915260800190565b60405180910390a250506004805460ff191690555050565b60045460009060ff1615610b985760405162461bcd60e51b81526004016103029061197a565b6004805460ff1916600117905585610be15760405162461bcd60e51b815260206004820152600c60248201526b092dcecc2d8d2c840d0c2e6d60a31b6044820152606401610302565b60008511610c275760405162461bcd60e51b815260206004820152601360248201527205061796d656e74206d757374206265203e203606c1b6044820152606401610302565b60008411610c705760405162461bcd60e51b81526020600482015260166024820152750436f6c6c61746572616c206d757374206265203e20360541b6044820152606401610302565b60008211610cb75760405162461bcd60e51b81526020600482015260146024820152730446561646c696e65206d757374206265203e20360641b6044820152606401610302565b60015460405163554c4f4b60e01b81523360048201526001600160a01b039091169063554c4f4b90602401602060405180830381865afa158015610cff573d6000803e3d6000fd5b505050506040513d601f19601f82011682018060405250810190610d2391906119a1565b610d635760405162461bcd60e51b8152602060048201526011602482015270506f73746572206e6f742061637469766560781b6044820152606401610302565b6000546040516323b872dd60e01b8152336004820152306024820152604481018790526001600160a01b03909116906323b872dd906064016020604051808303816000875af1158015610dba573d6000803e3d6000fd5b505050506040513d601f19601f82011682018060405250810190610dde91906119a1565b610e245760405162461bcd60e51b815260206004820152601760248201527614185e5b595b9d081d1c985b9cd9995c8819985a5b1959604a1b6044820152606401610302565b60028054906000610e3483611a52565b909155505060025460008181526003602081905260409091208281556001810180546001600160a01b031916331790559081018890556005810187905560068101869055610e8384603c611a6b565b610e8d9042611a10565b600782015560088101805460ff1916905560098101610eac8682611ad0565b5042600a8201556007810154604051339184917f5ebf78e5d28994d4d65103658e01cbb3b085c3753a46e086ec1659cde7d2892d91610ef1918c918c918c9190611b90565b60405180910390a3506004805460ff191690559695505050505050565b60008181526003602081815260408084208151610180810183528154815260018201546001600160a01b0390811694820194909452600282015490931691830191909152918201546060828101919091526004830154608083015260058084015460a0840152600684015460c0840152600784015460e08401526008840154859485948594859485948594859485949385938493849392909161010084019160ff90911690811115610fc257610fc261173e565b6005811115610fd357610fd361173e565b8152602001600982018054610fe790611940565b80601f016020809104026020016040519081016040528092919081815260200182805461101390611940565b80156110605780601f1061103557610100808354040283529160200191611060565b820191906000526020600020905b81548152906001019060200180831161104357829003601f168201915b50505050508152602001600a8201548152602001600b820154815250509050806000015181602001518260400151836060015184608001518560a001518660c001518760e001518861010001518961012001518a61014001518b61016001519c509c509c509c509c509c509c509c509c509c509c509c505091939597999b5091939597999b565b60045460ff161561110a5760405162461bcd60e51b81526004016103029061197a565b6004805460ff1916600117905560008281526003602052604090206002015482906001600160a01b031633146111725760405162461bcd60e51b815260206004820152600d60248201526c27b7363c9032bc32b1baba37b960991b6044820152606401610302565b60008381526003602052604090206001600882015460ff16600581111561119b5761119b61173e565b146111db5760405162461bcd60e51b815260206004820152601060248201526f129bd8881b9bdd081858d8d95c1d195960821b6044820152606401610302565b806007015442106112205760405162461bcd60e51b815260206004820152600f60248201526e111958591b1a5b99481c185cdcd959608a1b6044820152606401610302565b8261125c5760405162461bcd60e51b815260206004820152600c60248201526b092dcecc2d8d2c840d0c2e6d60a31b6044820152606401610302565b6004810183905560088101805460ff19166002179055604051838152339085907f80c17db79857f338a6a6df68a6883ecc0ce78e2202fe61ed979733573f40538e9060200160405180910390a36112b2846112c2565b50506004805460ff191690555050565b6000818152600360208190526040909120600481015491810154909114801561150f5760088201805460ff1916600317905542600b8301556006820154600583015460009161131091611a10565b600054600285015460405163a9059cbb60e01b81526001600160a01b03918216600482015260248101849052929350169063a9059cbb906044016020604051808303816000875af1158015611369573d6000803e3d6000fd5b505050506040513d601f19601f8201168201806040525081019061138d91906119a1565b6113d35760405162461bcd60e51b815260206004820152601760248201527614185e5b595b9d081d1c985b9cd9995c8819985a5b1959604a1b6044820152606401610302565b6001546002840154604051636a08b51160e01b81526001600160a01b03918216600482015260056024820152911690636a08b51190604401600060405180830381600087803b15801561142557600080fd5b505af1158015611439573d6000803e3d6000fd5b50506001805486820154600288015460058901546040516349f4c85d60e01b81526001600160a01b0394851697506349f4c85d96506114849593851694909216929091600401611a29565b600060405180830381600087803b15801561149e57600080fd5b505af11580156114b2573d6000803e3d6000fd5b5050505060028301546005840154604080516001815260208101929092526001600160a01b039092169186917f4365bfbba4fa6e428c1f95c14e0ee202310288079bfe3e489eb897a33ddabb1c910160405180910390a350505050565b60088201805460ff1916600417905542600b8301556006820154600583015460009161153a91611a10565b600054600185015460405163a9059cbb60e01b81526001600160a01b03918216600482015260248101849052929350169063a9059cbb906044016020604051808303816000875af1158015611593573d6000803e3d6000fd5b505050506040513d601f19601f820116820180604052508101906115b791906119a1565b6115d35760405162461bcd60e51b8152600401610302906119ca565b6001546002840154604051636a08b51160e01b81526001600160a01b0391821660048201526009196024820152911690636a08b51190604401600060405180830381600087803b15801561162657600080fd5b505af115801561163a573d6000803e3d6000fd5b50506001805490860154600287015460058801546040516349f4c85d60e01b81526001600160a01b0394851696506349f4c85d9550611686949384169390921691600090600401611a29565b600060405180830381600087803b1580156116a057600080fd5b505af11580156116b4573d6000803e3d6000fd5b50505050837f5ef3eb801ec43f028a7fa965b51780a4338218fead0de885d2a9c13133fa5482846006015460405161171691906040808252600d908201526c090c2e6d040dad2e6dac2e8c6d609b1b6060820152602081019190915260800190565b60405180910390a2505b505050565b60006020828403121561173757600080fd5b5035919050565b634e487b7160e01b600052602160045260246000fd5b6000815180845260005b8181101561177a5760208185018101518683018201520161175e565b506000602082860101526020601f19601f83011685010191505092915050565b8c81526001600160a01b038c811660208301528b166040820152606081018a90526080810189905260a0810188905260c0810187905260e081018690526000610180600687106117fa57634e487b7160e01b600052602160045260246000fd5b866101008401528061012084015261181481840187611754565b610140840195909552505061016001529a9950505050505050505050565b634e487b7160e01b600052604160045260246000fd5b600080600080600060a0868803121561186057600080fd5b853594506020860135935060408601359250606086013567ffffffffffffffff8082111561188d57600080fd5b818801915088601f8301126118a157600080fd5b8135818111156118b3576118b3611832565b604051601f8201601f19908116603f011681019083821181831017156118db576118db611832565b816040528281528b60208487010111156118f457600080fd5b82602086016020830137600092810160200192909252509699959850939660800135949350505050565b6000806040838503121561193157600080fd5b50508035926020909101359150565b600181811c9082168061195457607f821691505b60208210810361197457634e487b7160e01b600052602260045260246000fd5b50919050565b6020808252600d908201526c4e6f207265656e7472616e637960981b604082015260600190565b6000602082840312156119b357600080fd5b815180151581146119c357600080fd5b9392505050565b6020808252601690820152751499599d5b99081d1c985b9cd9995c8819985a5b195960521b604082015260600190565b634e487b7160e01b600052601160045260246000fd5b80820180821115611a2357611a236119fa565b92915050565b6001600160a01b0394851681529290931660208301526040820152901515606082015260800190565b600060018201611a6457611a646119fa565b5060010190565b8082028115828204841417611a2357611a236119fa565b601f82111561172057600081815260208120601f850160051c81016020861015611aa95750805b601f850160051c820191505b81811015611ac857828155600101611ab5565b505050505050565b815167ffffffffffffffff811115611aea57611aea611832565b611afe81611af88454611940565b84611a82565b602080601f831160018114611b335760008415611b1b5750858301515b600019600386901b1c1916600185901b178555611ac8565b600085815260208120601f198616915b82811015611b6257888601518255948401946001909101908401611b43565b5085821015611b805787850151600019600388901b60f8161c191681555b5050505050600190811b01905550565b848152836020820152608060408201526000611baf6080830185611754565b90508260608301529594505050505056fea2646970667358221220cf11838e1340870826a11dd79605c50adc5dcd15f1675bd52ff6738c4d6e878064736f6c63430008140033",
  "linkReferences": {},
  "deployedLinkReferences": {}
}