{
  "_format": "hh-sol-artifact-1",
  "contractName": "JobEscrow",
  "sourceName": "contracts/JobEscrow.sol",
  "abi": [
    {
      "inputs": [
        {
          "internalType": "address",
          "name": "_agentRegistry",
          "type": "address"
        }
      ],
      "stateMutability": "nonpayable",
      "type": "constructor"
    },
    {
      "anonymous": false,
      "inputs": [
        {
          "indexed": true,
          "internalType": "uint256",
          "name": "jobId",
          "type": "uint256"
        },
        {
          "indexed": true,
          "internalType": "address",
          "name": "executor",
          "type": "address"
        },
        {
          "indexed": false,
          "internalType": "uint256",
          "name": "collateral",
          "type": "uint256"
        }
      ],
      "name": "JobAccepted",
      "type": "event"
    },
    {
      "anonymous": false,
      "inputs": [
        {
          "indexed": true,
          "internalType": "uint256",
          "name": "jobId",
          "type": "uint256"
        },
        {
          "indexed": true,
          "internalType": "address",
          "name": "poster",
          "type": "address"
        },
        {
          "indexed": false,
          "internalType": "uint256",
          "name": "refundedAmount",
          "type": "uint256"
        }
      ],
      "name": "JobCancelled",
      "type": "event"
    },
    {
      "anonymous": false,
      "inputs": [
        {
          "indexed": true,
          "internalType": "uint256",
          "name": "jobId",
          "type": "uint256"
        },
        {
          "indexed": false,
          "internalType": "bool",
          "name": "verified",
          "type": "bool"
        },
        {
          "indexed": false,
          "internalType": "uint256",
          "name": "payment",
          "type": "uint256"
        },
        {
          "indexed": true,
          "internalType": "address",
          "name": "executor",
          "type": "address"
        }
      ],
      "name": "JobCompleted",
      "type": "event"
    },
    {
      "anonymous": false,
      "inputs": [
        {
          "indexed": true,
          "internalType": "uint256",
          "name": "jobId",
          "type": "uint256"
        },
        {
          "indexed": false,
          "internalType": "string",
          "name": "reason",
          "type": "string"
        },
        {
          "indexed": false,
          "internalType": "uint256",
          "name": "slashedAmount",
          "type": "uint256"
        }
      ],
      "name": "JobFailed",
      "type": "event"
    },
    {
      "anonymous": false,
      "inputs": [
        {
          "indexed": true,
          "internalType": "uint256",
          "name": "jobId",
          "type": "uint256"
        },
        {
          "indexed": true,
          "internalType": "address",
          "name": "poster",
          "type": "address"
        },
        {
          "indexed": false,
          "internalType": "uint256",
          "name": "payment",
          "type": "uint256"
        },
        {
          "indexed": false,
          "internalType": "uint256",
          "name": "collateral",
          "type": "uint256"
        },
        {
          "indexed": false,
          "internalType": "string",
          "name": "capability",
          "type": "string"
        },
        {
          "indexed": false,
          "internalType": "uint256",
          "name": "deadline",
          "type": "uint256"
        }
      ],
      "name": "JobPosted",
      "type": "event"
    },
    {
      "anonymous": false,
      "inputs": [
        {
          "indexed": true,
          "internalType": "uint256",
          "name": "jobId",
          "type": "uint256"
        },
        {
          "indexed": true,
          "internalType": "address",
          "name": "executor",
          "type": "address"
        },
        {
          "indexed": false,
          "internalType": "bytes32",
          "name": "submittedHash",
          "type": "bytes32"
        }
      ],
      "name": "JobSubmitted",
      "type": "event"
    },
    {
      "inputs": [],
      "name": "REPUTATION_FAILURE",
      "outputs": [
        {
          "internalType": "int256",
          "name": "",
          "type": "int256"
        }
      ],
      "stateMutability": "view",
      "type": "function"
    },
    {
      "inputs": [],
      "name": "REPUTATION_SUCCESS",
      "outputs": [
        {
          "internalType": "int256",
          "name": "",
          "type": "int256"
        }
      ],
      "stateMutability": "view",
      "type": "function"
    },
    {
      "inputs": [
        {
          "internalType": "uint256",
          "name": "_jobId",
          "type": "uint256"
        }
      ],
      "name": "acceptJob",
      "outputs": [],
      "stateMutability": "payable",
      "type": "function"
    },
    {
      "inputs": [],
      "name": "agentRegistry",
      "outputs": [
        {
          "internalType": "contract AgentRegistry",
          "name": "",
          "type": "address"
        }
      ],
      "stateMutability": "view",
      "type": "function"
    },
    {
      "inputs": [
        {
          "internalType": "uint256",
          "name": "_jobId",
          "type": "uint256"
        }
      ],
      "name": "cancelJob",
      "outputs": [],
      "stateMutability": "nonpayable",
      "type": "function"
    },
    {
      "inputs": [
        {
          "internalType": "uint256",
          "name": "_jobId",
          "type": "uint256"
        }
      ],
      "name": "claimTimeout",
      "outputs": [],
      "stateMutability": "nonpayable",
      "type": "function"
    },
    {
      "inputs": [
        {
          "internalType": "uint256",
          "name": "_jobId",
          "type": "uint256"
        }
      ],
      "name": "getJob",
      "outputs": [
        {
          "internalType": "uint256",
          "name": "jobId",
          "type": "uint256"
        },
        {
          "internalType": "address",
          "name": "poster",
          "type": "address"
        },
        {
          "internalType": "address",
          "name": "executor",
          "type": "address"
        },
        {
          "internalType": "bytes32",
          "name": "expectedHash",
          "type": "bytes32"
        },
        {
          "internalType": "bytes32",
          "name": "submittedHash",
          "type": "bytes32"
        },
        {
          "internalType": "uint256",
          "name": "payment",
          "type": "uint256"
        },
        {
          "internalType": "uint256",
          "name": "collateral",
          "type": "uint256"
        },
        {
          "internalType": "uint256",
          "name": "deadline",
          "type": "uint256"
        },
        {
          "internalType": "enum JobEscrow.JobStatus",
          "name": "status",
          "type": "uint8"
        },
        {
          "internalType": "string",
          "name": "capability",
          "type": "string"
        },
        {
          "internalType": "uint256",
          "name": "createdAt",
          "type": "uint256"
        },
        {
          "internalType": "uint256",
          "name": "completedAt",
          "type": "uint256"
        }
      ],
      "stateMutability": "view",
      "type": "function"
    },
    {
      "inputs": [],
      "name": "getTotalJobs",
      "outputs": [
        {
          "internalType": "uint256",
          "name": "",
          "type": "uint256"
        }
      ],
      "stateMutability": "view",
      "type": "function"
    },
    {
      "inputs": [],
      "name": "jobCounter",
      "outputs": [
        {
          "internalType": "uint256",
          "name": "",
          "type": "uint256"
        }
      ],
      "stateMutability": "view",
      "type": "function"
    },
    {
      "inputs": [
        {
          "internalType": "uint256",
          "name": "",
          "type": "uint256"
        }
      ],
      "name": "jobs",
      "outputs": [
        {
          "internalType": "uint256",
          "name": "jobId",
          "type": "uint256"
        },
        {
          "internalType": "address",
          "name": "poster",
          "type": "address"
        },
        {
          "internalType": "address",
          "name": "executor",
          "type": "address"
        },
        {
          "internalType": "bytes32",
          "name": "expectedHash",
          "type": "bytes32"
        },
        {
          "internalType": "bytes32",
          "name": "submittedHash",
          "type": "bytes32"
        },
        {
          "internalType": "uint256",
          "name": "payment",
          "type": "uint256"
        },
        {
          "internalType": "uint256",
          "name": "collateral",
          "type": "uint256"
        },
        {
          "internalType": "uint256",
          "name": "deadline",
          "type": "uint256"
        },
        {
          "internalType": "enum JobEscrow.JobStatus",
          "name": "status",
          "type": "uint8"
        },
        {
          "internalType": "string",
          "name": "capability",
          "type": "string"
        },
        {
          "internalType": "uint256",
          "name": "createdAt",
          "type": "uint256"
        },
        {
          "internalType": "uint256",
          "name": "completedAt",
          "type": "uint256"
        }
      ],
      "stateMutability": "view",
      "type": "function"
    },
    {
      "inputs": [
        {
          "internalType": "bytes32",
          "name": "_expectedHash",
          "type": "bytes32"
        },
        {
          "internalType": "uint256",
          "name": "_payment",
          "type": "uint256"
        },
        {
          "internalType": "uint256",
          "name": "_collateral",
          "type": "uint256"
        },
        {
          "internalType": "string",
          "name": "_capability",
          "type": "string"
        },
        {
          "internalType": "uint256",
          "name": "_deadlineMinutes",
          "type": "uint256"
        }
      ],
      "name": "postJob",
      "outputs": [
        {
          "internalType": "uint256",
          "name": "",
          "type": "uint256"
        }
      ],
      "stateMutability": "payable",
      "type": "function"
    },
    {
      "inputs": [
        {
          "internalType": "uint256",
          "name": "_jobId",
          "type": "uint256"
        },
        {
          "internalType": "bytes32",
          "name": "_resultHash",
          "type": "bytes32"
        }
      ],
      "name": "submitResult",
      "outputs": [],
      "stateMutability": "nonpayable",
      "type": "function"
    }
  ],
  "bytecode": "0x608060405234801561001057600080fd5b50604051611bc3380380611bc383398101604081905261002f916100ae565b6001600160a01b0381166100895760405162461bcd60e51b815260206004820152601860248201527f496e76616c696420726567697374727920616464726573730000000000000000604482015260640160405180910390fd5b600080546001600160a01b0319166001600160a01b03929092169190911790556100de565b6000602082840312156100c057600080fd5b81516001600160a01b03811681146100d757600080fd5b9392505050565b611ad6806100ed6000396000f3fe6080604052600436106100a75760003560e01c806350355d761161006457806350355d761461019157806363b2f3c9146101a757806386e773f1146101ba578063a738099d146101da578063bf22c457146101ed578063d2ee66cf1461020d57600080fd5b80630d1cfcae146100ac578063180aedf3146100e95780631ba5a79e146101215780631dffa3dc146101455780633aee79961461016757806347ca13ab1461017c575b600080fd5b3480156100b857600080fd5b506000546100cc906001600160a01b031681565b6040516001600160a01b0390911681526020015b60405180910390f35b3480156100f557600080fd5b50610109610104366004611605565b61022d565b6040516100e09c9b9a9998979695949392919061167a565b34801561012d57600080fd5b5061013760091981565b6040519081526020016100e0565b34801561015157600080fd5b50610165610160366004611605565b610326565b005b34801561017357600080fd5b50600154610137565b34801561018857600080fd5b50610137600581565b34801561019d57600080fd5b5061013760015481565b6101656101b5366004611605565b610510565b3480156101c657600080fd5b506101656101d5366004611605565b6107af565b6101376101e8366004611728565b610afe565b3480156101f957600080fd5b50610109610208366004611605565b610e27565b34801561021957600080fd5b506101656102283660046117fe565b610ffe565b60026020819052600091825260409091208054600182015492820154600383015460048401546005850154600686015460078701546008880154600989018054989a6001600160a01b039081169a9816989697959694959394929360ff9092169261029790611820565b80601f01602080910402602001604051908101604052809291908181526020018280546102c390611820565b80156103105780601f106102e557610100808354040283529160200191610310565b820191906000526020600020905b8154815290600101906020018083116102f357829003601f168201915b50505050509080600a01549080600b015490508c565b60035460ff16156103525760405162461bcd60e51b81526004016103499061185a565b60405180910390fd5b6003805460ff191660019081179091556000828152600260205260409020015481906001600160a01b031633146103b95760405162461bcd60e51b815260206004820152600b60248201526a27b7363c903837b9ba32b960a91b6044820152606401610349565b600082815260026020526040812090600882015460ff1660058111156103e1576103e161161e565b1461042e5760405162461bcd60e51b815260206004820152601c60248201527f43616e206f6e6c792063616e63656c2070656e64696e67206a6f6273000000006044820152606401610349565b60088101805460ff191660059081179091556001820154908201546040516000926001600160a01b031691908381818185875af1925050503d8060008114610492576040519150601f19603f3d011682016040523d82523d6000602084013e610497565b606091505b50509050806104b85760405162461bcd60e51b815260040161034990611881565b336001600160a01b0316847fa80c76c474b34cc7af71dec63d733b959fff08f4eb0789e288be5db6b608f94284600501546040516104f891815260200190565b60405180910390a350506003805460ff191690555050565b60035460ff16156105335760405162461bcd60e51b81526004016103499061185a565b6003805460ff19166001179055600081815260026020526040812090600882015460ff1660058111156105685761056861161e565b146105a95760405162461bcd60e51b81526020600482015260116024820152704a6f62206e6f7420617661696c61626c6560781b6044820152606401610349565b6001810154336001600160a01b03909116036105ff5760405162461bcd60e51b815260206004820152601560248201527421b0b73737ba1030b1b1b2b83a1037bbb7103537b160591b6044820152606401610349565b806007015442106106405760405162461bcd60e51b815260206004820152600b60248201526a129bd888195e1c1a5c995960aa1b6044820152606401610349565b806006015434146106935760405162461bcd60e51b815260206004820152601a60248201527f4d7573742073656e6420657861637420636f6c6c61746572616c0000000000006044820152606401610349565b60005460405163554c4f4b60e01b81523360048201526001600160a01b039091169063554c4f4b90602401602060405180830381865afa1580156106db573d6000803e3d6000fd5b505050506040513d601f19601f820116820180604052508101906106ff91906118b1565b6107415760405162461bcd60e51b81526020600482015260136024820152724578656375746f72206e6f742061637469766560681b6044820152606401610349565b6002810180546001600160a01b0319163390811790915560088201805460ff19166001179055600682015460405190815283907f3dd4928560f1aee6156570e82745e8f638e22a59b215d3cd549c53a32708b0e69060200160405180910390a350506003805460ff19169055565b60035460ff16156107d25760405162461bcd60e51b81526004016103499061185a565b6003805460ff191660019081179091556000828152600260205260409020015481906001600160a01b031633146108395760405162461bcd60e51b815260206004820152600b60248201526a27b7363c903837b9ba32b960a91b6044820152606401610349565b60008281526002602052604090206001600882015460ff1660058111156108625761086261161e565b146108af5760405162461bcd60e51b815260206004820152601960248201527f4a6f62206e6f7420696e206163636570746564207374617465000000000000006044820152606401610349565b80600701544210156108f95760405162461bcd60e51b8152602060048201526013602482015272111958591b1a5b99481b9bdd081c185cdcd959606a1b6044820152606401610349565b60088101805460ff1916600417905542600b82015560068101546005820154600091610924916118f0565b60018301546040519192506000916001600160a01b039091169083908381818185875af1925050503d8060008114610978576040519150601f19603f3d011682016040523d82523d6000602084013e61097d565b606091505b505090508061099e5760405162461bcd60e51b815260040161034990611881565b6000546002840154604051636a08b51160e01b81526001600160a01b0391821660048201526009196024820152911690636a08b51190604401600060405180830381600087803b1580156109f157600080fd5b505af1158015610a05573d6000803e3d6000fd5b5050600080546001870154600288015460058901546040516349f4c85d60e01b81526001600160a01b0394851697506349f4c85d9650610a519593851694909216929091600401611909565b600060405180830381600087803b158015610a6b57600080fd5b505af1158015610a7f573d6000803e3d6000fd5b50505050847f5ef3eb801ec43f028a7fa965b51780a4338218fead0de885d2a9c13133fa54828460060154604051610ae59190604080825260119082015270111958591b1a5b9948195e18d959591959607a1b6060820152602081019190915260800190565b60405180910390a250506003805460ff19169055505050565b60035460009060ff1615610b245760405162461bcd60e51b81526004016103499061185a565b6003805460ff1916600117905585610b6d5760405162461bcd60e51b815260206004820152600c60248201526b092dcecc2d8d2c840d0c2e6d60a31b6044820152606401610349565b60008511610bb35760405162461bcd60e51b815260206004820152601360248201527205061796d656e74206d757374206265203e203606c1b6044820152606401610349565b60008411610bfc5760405162461bcd60e51b81526020600482015260166024820152750436f6c6c61746572616c206d757374206265203e20360541b6044820152606401610349565b60008211610c435760405162461bcd60e51b81526020600482015260146024820152730446561646c696e65206d757374206265203e20360641b6044820152606401610349565b843414610c925760405162461bcd60e51b815260206004820152601760248201527f4d7573742073656e64206578616374207061796d656e740000000000000000006044820152606401610349565b60005460405163554c4f4b60e01b81523360048201526001600160a01b039091169063554c4f4b90602401602060405180830381865afa158015610cda573d6000803e3d6000fd5b505050506040513d601f19601f82011682018060405250810190610cfe91906118b1565b610d3e5760405162461bcd60e51b8152602060048201526011602482015270506f73746572206e6f742061637469766560781b6044820152606401610349565b60018054906000610d4e83611932565b909155505060018054600081815260026020526040902081815591820180546001600160a01b0319163317905560038201889055600582018790556006820186905590610d9c84603c61194b565b610da690426118f0565b600782015560088101805460ff1916905560098101610dc586826119b0565b5042600a8201556007810154604051339184917f5ebf78e5d28994d4d65103658e01cbb3b085c3753a46e086ec1659cde7d2892d91610e0a918c918c918c9190611a70565b60405180910390a3506003805460ff191690559695505050505050565b60008181526002602081815260408084208151610180810183528154815260018201546001600160a01b0390811694820194909452938101549092169083015260038101546060838101919091526004820154608084015260058083015460a0850152600683015460c0850152600783015460e0850152600883015485948594859485948594859485948594938593849384939092909161010084019160ff90911690811115610ed957610ed961161e565b6005811115610eea57610eea61161e565b8152602001600982018054610efe90611820565b80601f0160208091040260200160405190810160405280929190818152602001828054610f2a90611820565b8015610f775780601f10610f4c57610100808354040283529160200191610f77565b820191906000526020600020905b815481529060010190602001808311610f5a57829003601f168201915b50505050508152602001600a8201548152602001600b820154815250509050806000015181602001518260400151836060015184608001518560a001518660c001518760e001518861010001518961012001518a61014001518b61016001519c509c509c509c509c509c509c509c509c509c509c509c505091939597999b5091939597999b565b60035460ff16156110215760405162461bcd60e51b81526004016103499061185a565b6003805460ff191660011790556000828152600260208190526040909120015482906001600160a01b0316331461108a5760405162461bcd60e51b815260206004820152600d60248201526c27b7363c9032bc32b1baba37b960991b6044820152606401610349565b60008381526002602052604090206001600882015460ff1660058111156110b3576110b361161e565b146110f35760405162461bcd60e51b815260206004820152601060248201526f129bd8881b9bdd081858d8d95c1d195960821b6044820152606401610349565b806007015442106111385760405162461bcd60e51b815260206004820152600f60248201526e111958591b1a5b99481c185cdcd959608a1b6044820152606401610349565b826111745760405162461bcd60e51b815260206004820152600c60248201526b092dcecc2d8d2c840d0c2e6d60a31b6044820152606401610349565b6004810183905560088101805460ff19166002179055604051838152339085907f80c17db79857f338a6a6df68a6883ecc0ce78e2202fe61ed979733573f40538e9060200160405180910390a36111ca846111da565b50506003805460ff191690555050565b60008181526002602052604090206004810154600382015414801561140d5760088201805460ff1916600317905542600b83015560068201546005830154600091611224916118f0565b60028401546040519192506000916001600160a01b039091169083908381818185875af1925050503d8060008114611278576040519150601f19603f3d011682016040523d82523d6000602084013e61127d565b606091505b50509050806112ce5760405162461bcd60e51b815260206004820152601760248201527f5061796d656e74207472616e73666572206661696c65640000000000000000006044820152606401610349565b6000546002850154604051636a08b51160e01b81526001600160a01b03918216600482015260056024820152911690636a08b51190604401600060405180830381600087803b15801561132057600080fd5b505af1158015611334573d6000803e3d6000fd5b5050600054600187810154600289015460058a01546040516349f4c85d60e01b81526001600160a01b0395861697506349f4c85d9650611381959384169493909216929091600401611909565b600060405180830381600087803b15801561139b57600080fd5b505af11580156113af573d6000803e3d6000fd5b5050505060028401546005850154604080516001815260208101929092526001600160a01b039092169187917f4365bfbba4fa6e428c1f95c14e0ee202310288079bfe3e489eb897a33ddabb1c910160405180910390a35050505050565b60088201805460ff1916600417905542600b83015560068201546005830154600091611438916118f0565b60018401546040519192506000916001600160a01b039091169083908381818185875af1925050503d806000811461148c576040519150601f19603f3d011682016040523d82523d6000602084013e611491565b606091505b50509050806114b25760405162461bcd60e51b815260040161034990611881565b6000546002850154604051636a08b51160e01b81526001600160a01b0391821660048201526009196024820152911690636a08b51190604401600060405180830381600087803b15801561150557600080fd5b505af1158015611519573d6000803e3d6000fd5b5050600080546001880154600289015460058a01546040516349f4c85d60e01b81526001600160a01b0394851697506349f4c85d96506115659593851694909216929091600401611909565b600060405180830381600087803b15801561157f57600080fd5b505af1158015611593573d6000803e3d6000fd5b50505050847f5ef3eb801ec43f028a7fa965b51780a4338218fead0de885d2a9c13133fa548285600601546040516115f591906040808252600d908201526c090c2e6d040dad2e6dac2e8c6d609b1b6060820152602081019190915260800190565b60405180910390a250505b505050565b60006020828403121561161757600080fd5b5035919050565b634e487b7160e01b600052602160045260246000fd5b6000815180845260005b8181101561165a5760208185018101518683018201520161163e565b506000602082860101526020601f19601f83011685010191505092915050565b8c81526001600160a01b038c811660208301528b166040820152606081018a90526080810189905260a0810188905260c0810187905260e081018690526000610180600687106116da57634e487b7160e01b600052602160045260246000fd5b86610100840152806101208401526116f481840187611634565b610140840195909552505061016001529a9950505050505050505050565b634e487b7160e01b600052604160045260246000fd5b600080600080600060a0868803121561174057600080fd5b853594506020860135935060408601359250606086013567ffffffffffffffff8082111561176d57600080fd5b818801915088601f83011261178157600080fd5b81358181111561179357611793611712565b604051601f8201601f19908116603f011681019083821181831017156117bb576117bb611712565b816040528281528b60208487010111156117d457600080fd5b82602086016020830137600092810160200192909252509699959850939660800135949350505050565b6000806040838503121561181157600080fd5b50508035926020909101359150565b600181811c9082168061183457607f821691505b60208210810361185457634e487b7160e01b600052602260045260246000fd5b50919050565b6020808252600d908201526c4e6f207265656e7472616e637960981b604082015260600190565b6020808252601690820152751499599d5b99081d1c985b9cd9995c8819985a5b195960521b604082015260600190565b6000602082840312156118c357600080fd5b815180151581146118d357600080fd5b9392505050565b634e487b7160e01b600052601160045260246000fd5b80820180821115611903576119036118da565b92915050565b6001600160a01b0394851681529290931660208301526040820152901515606082015260800190565b600060018201611944576119446118da565b5060010190565b8082028115828204841417611903576119036118da565b601f82111561160057600081815260208120601f850160051c810160208610156119895750805b601f850160051c820191505b818110156119a857828155600101611995565b505050505050565b815167ffffffffffffffff8111156119ca576119ca611712565b6119de816119d88454611820565b84611962565b602080601f831160018114611a1357600084156119fb5750858301515b600019600386901b1c1916600185901b1785556119a8565b600085815260208120601f198616915b82811015611a4257888601518255948401946001909101908401611a23565b5085821015611a605787850151600019600388901b60f8161c191681555b5050505050600190811b01905550565b848152836020820152608060408201526000611a8f6080830185611634565b90508260608301529594505050505056fea26469706673582212208c5d5c0e6c2ff07875f1a6d62c72abde8c479e88360c4e0ed5f3bb985cf7b25164736f6c63430008140033",
  "linkReferences": {},
  "deployedLinkReferences": {}
}